{
	"data": {
		"bytecode": {
			"linkReferences": {},
			"object": "6080604052348015600e575f5ffd5b50610cd48061001c5f395ff3fe608060405234801561000f575f5ffd5b5060043610610034575f3560e01c806391e8676114610038578063a2f9eac614610054575b5f5ffd5b610052600480360381019061004d91906101a8565b610085565b005b61006e60048036038101906100699190610222565b6100be565b60405161007c9291906102d8565b60405180910390f35b5f81908060018154018082558091505060019003905f5260205f2090600302015f9091909190915081816100b99190610c90565b505050565b5f81815481106100cc575f80fd5b905f5260205f2090600302015f91509050805f015f9054906101000a900460ff16908060010180546100fd906104b2565b80601f0160208091040260200160405190810160405280929190818152602001828054610129906104b2565b80156101745780601f1061014b57610100808354040283529160200191610174565b820191905f5260205f20905b81548152906001019060200180831161015757829003601f168201915b5050505050905082565b5f5ffd5b5f5ffd5b5f5ffd5b5f6060828403121561019f5761019e610186565b5b81905092915050565b5f602082840312156101bd576101bc61017e565b5b5f82013567ffffffffffffffff8111156101da576101d9610182565b5b6101e68482850161018a565b91505092915050565b5f819050919050565b610201816101ef565b811461020b575f5ffd5b50565b5f8135905061021c816101f8565b92915050565b5f602082840312156102375761023661017e565b5b5f6102448482850161020e565b91505092915050565b5f60ff82169050919050565b6102628161024d565b82525050565b5f81519050919050565b5f82825260208201905092915050565b8281835e5f83830152505050565b5f601f19601f8301169050919050565b5f6102aa82610268565b6102b48185610272565b93506102c4818560208601610282565b6102cd81610290565b840191505092915050565b5f6040820190506102eb5f830185610259565b81810360208301526102fd81846102a0565b90509392505050565b7f4e487b71000000000000000000000000000000000000000000000000000000005f525f60045260245ffd5b61033b8161024d565b8114610345575f5ffd5b50565b5f813561035481610332565b80915050919050565b5f815f1b9050919050565b5f60ff6103748461035d565b9350801983169250808416831791505092915050565b5f819050919050565b5f6103ad6103a86103a38461024d565b61038a565b61024d565b9050919050565b5f819050919050565b6103c682610393565b6103d96103d2826103b4565b8354610368565b8255505050565b5f5ffd5b5f5ffd5b5f5ffd5b5f5f83356001602003843603038112610408576104076103e0565b5b80840192508235915067ffffffffffffffff82111561042a576104296103e4565b5b602083019250600182023603831315610446576104456103e8565b5b509250929050565b5f82905092915050565b7f4e487b71000000000000000000000000000000000000000000000000000000005f52604160045260245ffd5b7f4e487b71000000000000000000000000000000000000000000000000000000005f52602260045260245ffd5b5f60028204905060018216806104c957607f821691505b6020821081036104dc576104db610485565b5b50919050565b5f819050815f5260205f209050919050565b5f6020601f8301049050919050565b5f82821b905092915050565b5f6008830261053e7fffffffffffffffffffffffffffffffffffffffffffffffffffffffffffffffff82610503565b6105488683610503565b95508019841693508086168417925050509392505050565b5f61057a610575610570846101ef565b61038a565b6101ef565b9050919050565b5f819050919050565b61059383610560565b6105a761059f82610581565b84845461050f565b825550505050565b5f5f905090565b6105be6105af565b6105c981848461058a565b505050565b5b818110156105ec576105e15f826105b6565b6001810190506105cf565b5050565b601f82111561063157610602816104e2565b61060b846104f4565b8101602085101561061a578190505b61062e610626856104f4565b8301826105ce565b50505b505050565b5f82821c905092915050565b5f6106515f1984600802610636565b1980831691505092915050565b5f6106698383610642565b9150826002028217905092915050565b610683838361044e565b67ffffffffffffffff81111561069c5761069b610458565b5b6106a682546104b2565b6106b18282856105f0565b5f601f8311600181146106de575f84156106cc578287013590505b6106d6858261065e565b86555061073d565b601f1984166106ec866104e2565b5f5b82811015610713578489013582556001820191506020850194506020810190506106ee565b86831015610730578489013561072c601f891682610642565b8355505b6001600288020188555050505b50505050505050565b610751838383610679565b505050565b5f5f83356001602003843603038112610772576107716103e0565b5b80840192508235915067ffffffffffffffff821115610794576107936103e4565b5b6020830192506020820236038313156107b0576107af6103e8565b5b509250929050565b5f819050919050565b5f823560016040038336030381126107dc576107db6103e0565b5b80830191505092915050565b5f81549050919050565b7f4e487b71000000000000000000000000000000000000000000000000000000005f52601160045260245ffd5b5f610829826101ef565b9150610834836101ef565b9250828202610842816101ef565b91508282048414831517610859576108586107f2565b5b5092915050565b5f81905061086f82600261081f565b9050919050565b5f819050815f5260205f209050919050565b6108b87fffffffffffffffffffffffffffffffffffffffffffffffffffffffffffffffff83602003600802610636565b815481168255505050565b6108cc816104e2565b6108d783825461065e565b8083555f825550505050565b602084105f811461093d57601f84116001811461090b57610904868561065e565b8355610937565b610914836104e2565b61092b610920876104f4565b8201600183016105ce565b61093587856108c3565b505b5061098a565b610946826104e2565b61094f866104f4565b8101601f87168015610969576109688160018403610888565b5b61097d610975886104f4565b8401836105ce565b6001886002021785555050505b5050505050565b680100000000000000008411156109ab576109aa610458565b5b602083105f81146109f457602085105f81146109d2576109cb868561065e565b83556109ee565b8360ff19169350836109e3846104e2565b556001866002020183555b506109fe565b6001856002020182555b5050505050565b8054610a10816104b2565b80841115610a2557610a2484828486610991565b5b80841015610a3a57610a39848284866108e3565b5b50505050565b81811015610a5d57610a525f826105b6565b600181019050610a40565b5050565b610a6b5f82610a05565b50565b5f8214610a7e57610a7d610306565b5b610a8781610a61565b5050565b610a975f5f8301610a6e565b610aa45f60018301610a6e565b50565b5f8214610ab757610ab6610306565b5b610ac081610a8b565b5050565b5b81811015610ae257610ad75f82610aa7565b600281019050610ac5565b5050565b81831015610b1f57610af782610860565b610b0084610860565b610b0983610876565b818101838201610b198183610ac4565b50505050505b505050565b68010000000000000000821115610b3e57610b3d610458565b5b610b47816107e8565b828255610b55838284610ae6565b505050565b5f82905092915050565b5f81015f8301610b7481856103ec565b610b7f818386610746565b505050506001810160208301610b9581856103ec565b610ba0818386610746565b505050505050565b610bb28282610b64565b5050565b610bc08383610b5a565b610bca8183610b24565b610bd3836107b8565b610bdc83610876565b5f5b83811015610c1257610bf083876107c1565b610bfa8184610ba8565b60208401935060028301925050600181019050610bde565b50505050505050565b610c26838383610bb6565b505050565b5f81015f830180610c3b81610348565b9050610c4781846103bd565b5050506001810160208301610c5c81856103ec565b610c67818386610746565b505050506002810160408301610c7d8185610756565b610c88818386610c1b565b505050505050565b610c9a8282610c2b565b505056fea26469706673582212203d18bfd50b63b86e1038b7ec17c8d503e0de7b4f97c8cf5cc207188b7975ba6264736f6c634300081e0033",
			"opcodes": "PUSH1 0x80 PUSH1 0x40 MSTORE CALLVALUE DUP1 ISZERO PUSH1 0xE JUMPI PUSH0 PUSH0 REVERT JUMPDEST POP PUSH2 0xCD4 DUP1 PUSH2 0x1C PUSH0 CODECOPY PUSH0 RETURN INVALID PUSH1 0x80 PUSH1 0x40 MSTORE CALLVALUE DUP1 ISZERO PUSH2 0xF JUMPI PUSH0 PUSH0 REVERT JUMPDEST POP PUSH1 0x4 CALLDATASIZE LT PUSH2 0x34 JUMPI PUSH0 CALLDATALOAD PUSH1 0xE0 SHR DUP1 PUSH4 0x91E86761 EQ PUSH2 0x38 JUMPI DUP1 PUSH4 0xA2F9EAC6 EQ PUSH2 0x54 JUMPI JUMPDEST PUSH0 PUSH0 REVERT JUMPDEST PUSH2 0x52 PUSH1 0x4 DUP1 CALLDATASIZE SUB DUP2 ADD SWAP1 PUSH2 0x4D SWAP2 SWAP1 PUSH2 0x1A8 JUMP JUMPDEST PUSH2 0x85 JUMP JUMPDEST STOP JUMPDEST PUSH2 0x6E PUSH1 0x4 DUP1 CALLDATASIZE SUB DUP2 ADD SWAP1 PUSH2 0x69 SWAP2 SWAP1 PUSH2 0x222 JUMP JUMPDEST PUSH2 0xBE JUMP JUMPDEST PUSH1 0x40 MLOAD PUSH2 0x7C SWAP3 SWAP2 SWAP1 PUSH2 0x2D8 JUMP JUMPDEST PUSH1 0x40 MLOAD DUP1 SWAP2 SUB SWAP1 RETURN JUMPDEST PUSH0 DUP2 SWAP1 DUP1 PUSH1 0x1 DUP2 SLOAD ADD DUP1 DUP3 SSTORE DUP1 SWAP2 POP POP PUSH1 0x1 SWAP1 SUB SWAP1 PUSH0 MSTORE PUSH1 0x20 PUSH0 KECCAK256 SWAP1 PUSH1 0x3 MUL ADD PUSH0 SWAP1 SWAP2 SWAP1 SWAP2 SWAP1 SWAP2 POP DUP2 DUP2 PUSH2 0xB9 SWAP2 SWAP1 PUSH2 0xC90 JUMP JUMPDEST POP POP POP JUMP JUMPDEST PUSH0 DUP2 DUP2 SLOAD DUP2 LT PUSH2 0xCC JUMPI PUSH0 DUP1 REVERT JUMPDEST SWAP1 PUSH0 MSTORE PUSH1 0x20 PUSH0 KECCAK256 SWAP1 PUSH1 0x3 MUL ADD PUSH0 SWAP2 POP SWAP1 POP DUP1 PUSH0 ADD PUSH0 SWAP1 SLOAD SWAP1 PUSH2 0x100 EXP SWAP1 DIV PUSH1 0xFF AND SWAP1 DUP1 PUSH1 0x1 ADD DUP1 SLOAD PUSH2 0xFD SWAP1 PUSH2 0x4B2 JUMP JUMPDEST DUP1 PUSH1 0x1F ADD PUSH1 0x20 DUP1 SWAP2 DIV MUL PUSH1 0x20 ADD PUSH1 0x40 MLOAD SWAP1 DUP2 ADD PUSH1 0x40 MSTORE DUP1 SWAP3 SWAP2 SWAP1 DUP2 DUP2 MSTORE PUSH1 0x20 ADD DUP3 DUP1 SLOAD PUSH2 0x129 SWAP1 PUSH2 0x4B2 JUMP JUMPDEST DUP1 ISZERO PUSH2 0x174 JUMPI DUP1 PUSH1 0x1F LT PUSH2 0x14B JUMPI PUSH2 0x100 DUP1 DUP4 SLOAD DIV MUL DUP4 MSTORE SWAP2 PUSH1 0x20 ADD SWAP2 PUSH2 0x174 JUMP JUMPDEST DUP3 ADD SWAP2 SWAP1 PUSH0 MSTORE PUSH1 0x20 PUSH0 KECCAK256 SWAP1 JUMPDEST DUP2 SLOAD DUP2 MSTORE SWAP1 PUSH1 0x1 ADD SWAP1 PUSH1 0x20 ADD DUP1 DUP4 GT PUSH2 0x157 JUMPI DUP3 SWAP1 SUB PUSH1 0x1F AND DUP3 ADD SWAP2 JUMPDEST POP POP POP POP POP SWAP1 POP DUP3 JUMP JUMPDEST PUSH0 PUSH0 REVERT JUMPDEST PUSH0 PUSH0 REVERT JUMPDEST PUSH0 PUSH0 REVERT JUMPDEST PUSH0 PUSH1 0x60 DUP3 DUP5 SUB SLT ISZERO PUSH2 0x19F JUMPI PUSH2 0x19E PUSH2 0x186 JUMP JUMPDEST JUMPDEST DUP2 SWAP1 POP SWAP3 SWAP2 POP POP JUMP JUMPDEST PUSH0 PUSH1 0x20 DUP3 DUP5 SUB SLT ISZERO PUSH2 0x1BD JUMPI PUSH2 0x1BC PUSH2 0x17E JUMP JUMPDEST JUMPDEST PUSH0 DUP3 ADD CALLDATALOAD PUSH8 0xFFFFFFFFFFFFFFFF DUP2 GT ISZERO PUSH2 0x1DA JUMPI PUSH2 0x1D9 PUSH2 0x182 JUMP JUMPDEST JUMPDEST PUSH2 0x1E6 DUP5 DUP3 DUP6 ADD PUSH2 0x18A JUMP JUMPDEST SWAP2 POP POP SWAP3 SWAP2 POP POP JUMP JUMPDEST PUSH0 DUP2 SWAP1 POP SWAP2 SWAP1 POP JUMP JUMPDEST PUSH2 0x201 DUP2 PUSH2 0x1EF JUMP JUMPDEST DUP2 EQ PUSH2 0x20B JUMPI PUSH0 PUSH0 REVERT JUMPDEST POP JUMP JUMPDEST PUSH0 DUP2 CALLDATALOAD SWAP1 POP PUSH2 0x21C DUP2 PUSH2 0x1F8 JUMP JUMPDEST SWAP3 SWAP2 POP POP JUMP JUMPDEST PUSH0 PUSH1 0x20 DUP3 DUP5 SUB SLT ISZERO PUSH2 0x237 JUMPI PUSH2 0x236 PUSH2 0x17E JUMP JUMPDEST JUMPDEST PUSH0 PUSH2 0x244 DUP5 DUP3 DUP6 ADD PUSH2 0x20E JUMP JUMPDEST SWAP2 POP POP SWAP3 SWAP2 POP POP JUMP JUMPDEST PUSH0 PUSH1 0xFF DUP3 AND SWAP1 POP SWAP2 SWAP1 POP JUMP JUMPDEST PUSH2 0x262 DUP2 PUSH2 0x24D JUMP JUMPDEST DUP3 MSTORE POP POP JUMP JUMPDEST PUSH0 DUP2 MLOAD SWAP1 POP SWAP2 SWAP1 POP JUMP JUMPDEST PUSH0 DUP3 DUP3 MSTORE PUSH1 0x20 DUP3 ADD SWAP1 POP SWAP3 SWAP2 POP POP JUMP JUMPDEST DUP3 DUP2 DUP4 MCOPY PUSH0 DUP4 DUP4 ADD MSTORE POP POP POP JUMP JUMPDEST PUSH0 PUSH1 0x1F NOT PUSH1 0x1F DUP4 ADD AND SWAP1 POP SWAP2 SWAP1 POP JUMP JUMPDEST PUSH0 PUSH2 0x2AA DUP3 PUSH2 0x268 JUMP JUMPDEST PUSH2 0x2B4 DUP2 DUP6 PUSH2 0x272 JUMP JUMPDEST SWAP4 POP PUSH2 0x2C4 DUP2 DUP6 PUSH1 0x20 DUP7 ADD PUSH2 0x282 JUMP JUMPDEST PUSH2 0x2CD DUP2 PUSH2 0x290 JUMP JUMPDEST DUP5 ADD SWAP2 POP POP SWAP3 SWAP2 POP POP JUMP JUMPDEST PUSH0 PUSH1 0x40 DUP3 ADD SWAP1 POP PUSH2 0x2EB PUSH0 DUP4 ADD DUP6 PUSH2 0x259 JUMP JUMPDEST DUP2 DUP2 SUB PUSH1 0x20 DUP4 ADD MSTORE PUSH2 0x2FD DUP2 DUP5 PUSH2 0x2A0 JUMP JUMPDEST SWAP1 POP SWAP4 SWAP3 POP POP POP JUMP JUMPDEST PUSH32 0x4E487B7100000000000000000000000000000000000000000000000000000000 PUSH0 MSTORE PUSH0 PUSH1 0x4 MSTORE PUSH1 0x24 PUSH0 REVERT JUMPDEST PUSH2 0x33B DUP2 PUSH2 0x24D JUMP JUMPDEST DUP2 EQ PUSH2 0x345 JUMPI PUSH0 PUSH0 REVERT JUMPDEST POP JUMP JUMPDEST PUSH0 DUP2 CALLDATALOAD PUSH2 0x354 DUP2 PUSH2 0x332 JUMP JUMPDEST DUP1 SWAP2 POP POP SWAP2 SWAP1 POP JUMP JUMPDEST PUSH0 DUP2 PUSH0 SHL SWAP1 POP SWAP2 SWAP1 POP JUMP JUMPDEST PUSH0 PUSH1 0xFF PUSH2 0x374 DUP5 PUSH2 0x35D JUMP JUMPDEST SWAP4 POP DUP1 NOT DUP4 AND SWAP3 POP DUP1 DUP5 AND DUP4 OR SWAP2 POP POP SWAP3 SWAP2 POP POP JUMP JUMPDEST PUSH0 DUP2 SWAP1 POP SWAP2 SWAP1 POP JUMP JUMPDEST PUSH0 PUSH2 0x3AD PUSH2 0x3A8 PUSH2 0x3A3 DUP5 PUSH2 0x24D JUMP JUMPDEST PUSH2 0x38A JUMP JUMPDEST PUSH2 0x24D JUMP JUMPDEST SWAP1 POP SWAP2 SWAP1 POP JUMP JUMPDEST PUSH0 DUP2 SWAP1 POP SWAP2 SWAP1 POP JUMP JUMPDEST PUSH2 0x3C6 DUP3 PUSH2 0x393 JUMP JUMPDEST PUSH2 0x3D9 PUSH2 0x3D2 DUP3 PUSH2 0x3B4 JUMP JUMPDEST DUP4 SLOAD PUSH2 0x368 JUMP JUMPDEST DUP3 SSTORE POP POP POP JUMP JUMPDEST PUSH0 PUSH0 REVERT JUMPDEST PUSH0 PUSH0 REVERT JUMPDEST PUSH0 PUSH0 REVERT JUMPDEST PUSH0 PUSH0 DUP4 CALLDATALOAD PUSH1 0x1 PUSH1 0x20 SUB DUP5 CALLDATASIZE SUB SUB DUP2 SLT PUSH2 0x408 JUMPI PUSH2 0x407 PUSH2 0x3E0 JUMP JUMPDEST JUMPDEST DUP1 DUP5 ADD SWAP3 POP DUP3 CALLDATALOAD SWAP2 POP PUSH8 0xFFFFFFFFFFFFFFFF DUP3 GT ISZERO PUSH2 0x42A JUMPI PUSH2 0x429 PUSH2 0x3E4 JUMP JUMPDEST JUMPDEST PUSH1 0x20 DUP4 ADD SWAP3 POP PUSH1 0x1 DUP3 MUL CALLDATASIZE SUB DUP4 SGT ISZERO PUSH2 0x446 JUMPI PUSH2 0x445 PUSH2 0x3E8 JUMP JUMPDEST JUMPDEST POP SWAP3 POP SWAP3 SWAP1 POP JUMP JUMPDEST PUSH0 DUP3 SWAP1 POP SWAP3 SWAP2 POP POP JUMP JUMPDEST PUSH32 0x4E487B7100000000000000000000000000000000000000000000000000000000 PUSH0 MSTORE PUSH1 0x41 PUSH1 0x4 MSTORE PUSH1 0x24 PUSH0 REVERT JUMPDEST PUSH32 0x4E487B7100000000000000000000000000000000000000000000000000000000 PUSH0 MSTORE PUSH1 0x22 PUSH1 0x4 MSTORE PUSH1 0x24 PUSH0 REVERT JUMPDEST PUSH0 PUSH1 0x2 DUP3 DIV SWAP1 POP PUSH1 0x1 DUP3 AND DUP1 PUSH2 0x4C9 JUMPI PUSH1 0x7F DUP3 AND SWAP2 POP JUMPDEST PUSH1 0x20 DUP3 LT DUP2 SUB PUSH2 0x4DC JUMPI PUSH2 0x4DB PUSH2 0x485 JUMP JUMPDEST JUMPDEST POP SWAP2 SWAP1 POP JUMP JUMPDEST PUSH0 DUP2 SWAP1 POP DUP2 PUSH0 MSTORE PUSH1 0x20 PUSH0 KECCAK256 SWAP1 POP SWAP2 SWAP1 POP JUMP JUMPDEST PUSH0 PUSH1 0x20 PUSH1 0x1F DUP4 ADD DIV SWAP1 POP SWAP2 SWAP1 POP JUMP JUMPDEST PUSH0 DUP3 DUP3 SHL SWAP1 POP SWAP3 SWAP2 POP POP JUMP JUMPDEST PUSH0 PUSH1 0x8 DUP4 MUL PUSH2 0x53E PUSH32 0xFFFFFFFFFFFFFFFFFFFFFFFFFFFFFFFFFFFFFFFFFFFFFFFFFFFFFFFFFFFFFFFF DUP3 PUSH2 0x503 JUMP JUMPDEST PUSH2 0x548 DUP7 DUP4 PUSH2 0x503 JUMP JUMPDEST SWAP6 POP DUP1 NOT DUP5 AND SWAP4 POP DUP1 DUP7 AND DUP5 OR SWAP3 POP POP POP SWAP4 SWAP3 POP POP POP JUMP JUMPDEST PUSH0 PUSH2 0x57A PUSH2 0x575 PUSH2 0x570 DUP5 PUSH2 0x1EF JUMP JUMPDEST PUSH2 0x38A JUMP JUMPDEST PUSH2 0x1EF JUMP JUMPDEST SWAP1 POP SWAP2 SWAP1 POP JUMP JUMPDEST PUSH0 DUP2 SWAP1 POP SWAP2 SWAP1 POP JUMP JUMPDEST PUSH2 0x593 DUP4 PUSH2 0x560 JUMP JUMPDEST PUSH2 0x5A7 PUSH2 0x59F DUP3 PUSH2 0x581 JUMP JUMPDEST DUP5 DUP5 SLOAD PUSH2 0x50F JUMP JUMPDEST DUP3 SSTORE POP POP POP POP JUMP JUMPDEST PUSH0 PUSH0 SWAP1 POP SWAP1 JUMP JUMPDEST PUSH2 0x5BE PUSH2 0x5AF JUMP JUMPDEST PUSH2 0x5C9 DUP2 DUP5 DUP5 PUSH2 0x58A JUMP JUMPDEST POP POP POP JUMP JUMPDEST JUMPDEST DUP2 DUP2 LT ISZERO PUSH2 0x5EC JUMPI PUSH2 0x5E1 PUSH0 DUP3 PUSH2 0x5B6 JUMP JUMPDEST PUSH1 0x1 DUP2 ADD SWAP1 POP PUSH2 0x5CF JUMP JUMPDEST POP POP JUMP JUMPDEST PUSH1 0x1F DUP3 GT ISZERO PUSH2 0x631 JUMPI PUSH2 0x602 DUP2 PUSH2 0x4E2 JUMP JUMPDEST PUSH2 0x60B DUP5 PUSH2 0x4F4 JUMP JUMPDEST DUP2 ADD PUSH1 0x20 DUP6 LT ISZERO PUSH2 0x61A JUMPI DUP2 SWAP1 POP JUMPDEST PUSH2 0x62E PUSH2 0x626 DUP6 PUSH2 0x4F4 JUMP JUMPDEST DUP4 ADD DUP3 PUSH2 0x5CE JUMP JUMPDEST POP POP JUMPDEST POP POP POP JUMP JUMPDEST PUSH0 DUP3 DUP3 SHR SWAP1 POP SWAP3 SWAP2 POP POP JUMP JUMPDEST PUSH0 PUSH2 0x651 PUSH0 NOT DUP5 PUSH1 0x8 MUL PUSH2 0x636 JUMP JUMPDEST NOT DUP1 DUP4 AND SWAP2 POP POP SWAP3 SWAP2 POP POP JUMP JUMPDEST PUSH0 PUSH2 0x669 DUP4 DUP4 PUSH2 0x642 JUMP JUMPDEST SWAP2 POP DUP3 PUSH1 0x2 MUL DUP3 OR SWAP1 POP SWAP3 SWAP2 POP POP JUMP JUMPDEST PUSH2 0x683 DUP4 DUP4 PUSH2 0x44E JUMP JUMPDEST PUSH8 0xFFFFFFFFFFFFFFFF DUP2 GT ISZERO PUSH2 0x69C JUMPI PUSH2 0x69B PUSH2 0x458 JUMP JUMPDEST JUMPDEST PUSH2 0x6A6 DUP3 SLOAD PUSH2 0x4B2 JUMP JUMPDEST PUSH2 0x6B1 DUP3 DUP3 DUP6 PUSH2 0x5F0 JUMP JUMPDEST PUSH0 PUSH1 0x1F DUP4 GT PUSH1 0x1 DUP2 EQ PUSH2 0x6DE JUMPI PUSH0 DUP5 ISZERO PUSH2 0x6CC JUMPI DUP3 DUP8 ADD CALLDATALOAD SWAP1 POP JUMPDEST PUSH2 0x6D6 DUP6 DUP3 PUSH2 0x65E JUMP JUMPDEST DUP7 SSTORE POP PUSH2 0x73D JUMP JUMPDEST PUSH1 0x1F NOT DUP5 AND PUSH2 0x6EC DUP7 PUSH2 0x4E2 JUMP JUMPDEST PUSH0 JUMPDEST DUP3 DUP2 LT ISZERO PUSH2 0x713 JUMPI DUP5 DUP10 ADD CALLDATALOAD DUP3 SSTORE PUSH1 0x1 DUP3 ADD SWAP2 POP PUSH1 0x20 DUP6 ADD SWAP5 POP PUSH1 0x20 DUP2 ADD SWAP1 POP PUSH2 0x6EE JUMP JUMPDEST DUP7 DUP4 LT ISZERO PUSH2 0x730 JUMPI DUP5 DUP10 ADD CALLDATALOAD PUSH2 0x72C PUSH1 0x1F DUP10 AND DUP3 PUSH2 0x642 JUMP JUMPDEST DUP4 SSTORE POP JUMPDEST PUSH1 0x1 PUSH1 0x2 DUP9 MUL ADD DUP9 SSTORE POP POP POP JUMPDEST POP POP POP POP POP POP POP JUMP JUMPDEST PUSH2 0x751 DUP4 DUP4 DUP4 PUSH2 0x679 JUMP JUMPDEST POP POP POP JUMP JUMPDEST PUSH0 PUSH0 DUP4 CALLDATALOAD PUSH1 0x1 PUSH1 0x20 SUB DUP5 CALLDATASIZE SUB SUB DUP2 SLT PUSH2 0x772 JUMPI PUSH2 0x771 PUSH2 0x3E0 JUMP JUMPDEST JUMPDEST DUP1 DUP5 ADD SWAP3 POP DUP3 CALLDATALOAD SWAP2 POP PUSH8 0xFFFFFFFFFFFFFFFF DUP3 GT ISZERO PUSH2 0x794 JUMPI PUSH2 0x793 PUSH2 0x3E4 JUMP JUMPDEST JUMPDEST PUSH1 0x20 DUP4 ADD SWAP3 POP PUSH1 0x20 DUP3 MUL CALLDATASIZE SUB DUP4 SGT ISZERO PUSH2 0x7B0 JUMPI PUSH2 0x7AF PUSH2 0x3E8 JUMP JUMPDEST JUMPDEST POP SWAP3 POP SWAP3 SWAP1 POP JUMP JUMPDEST PUSH0 DUP2 SWAP1 POP SWAP2 SWAP1 POP JUMP JUMPDEST PUSH0 DUP3 CALLDATALOAD PUSH1 0x1 PUSH1 0x40 SUB DUP4 CALLDATASIZE SUB SUB DUP2 SLT PUSH2 0x7DC JUMPI PUSH2 0x7DB PUSH2 0x3E0 JUMP JUMPDEST JUMPDEST DUP1 DUP4 ADD SWAP2 POP POP SWAP3 SWAP2 POP POP JUMP JUMPDEST PUSH0 DUP2 SLOAD SWAP1 POP SWAP2 SWAP1 POP JUMP JUMPDEST PUSH32 0x4E487B7100000000000000000000000000000000000000000000000000000000 PUSH0 MSTORE PUSH1 0x11 PUSH1 0x4 MSTORE PUSH1 0x24 PUSH0 REVERT JUMPDEST PUSH0 PUSH2 0x829 DUP3 PUSH2 0x1EF JUMP JUMPDEST SWAP2 POP PUSH2 0x834 DUP4 PUSH2 0x1EF JUMP JUMPDEST SWAP3 POP DUP3 DUP3 MUL PUSH2 0x842 DUP2 PUSH2 0x1EF JUMP JUMPDEST SWAP2 POP DUP3 DUP3 DIV DUP5 EQ DUP4 ISZERO OR PUSH2 0x859 JUMPI PUSH2 0x858 PUSH2 0x7F2 JUMP JUMPDEST JUMPDEST POP SWAP3 SWAP2 POP POP JUMP JUMPDEST PUSH0 DUP2 SWAP1 POP PUSH2 0x86F DUP3 PUSH1 0x2 PUSH2 0x81F JUMP JUMPDEST SWAP1 POP SWAP2 SWAP1 POP JUMP JUMPDEST PUSH0 DUP2 SWAP1 POP DUP2 PUSH0 MSTORE PUSH1 0x20 PUSH0 KECCAK256 SWAP1 POP SWAP2 SWAP1 POP JUMP JUMPDEST PUSH2 0x8B8 PUSH32 0xFFFFFFFFFFFFFFFFFFFFFFFFFFFFFFFFFFFFFFFFFFFFFFFFFFFFFFFFFFFFFFFF DUP4 PUSH1 0x20 SUB PUSH1 0x8 MUL PUSH2 0x636 JUMP JUMPDEST DUP2 SLOAD DUP2 AND DUP3 SSTORE POP POP POP JUMP JUMPDEST PUSH2 0x8CC DUP2 PUSH2 0x4E2 JUMP JUMPDEST PUSH2 0x8D7 DUP4 DUP3 SLOAD PUSH2 0x65E JUMP JUMPDEST DUP1 DUP4 SSTORE PUSH0 DUP3 SSTORE POP POP POP POP JUMP JUMPDEST PUSH1 0x20 DUP5 LT PUSH0 DUP2 EQ PUSH2 0x93D JUMPI PUSH1 0x1F DUP5 GT PUSH1 0x1 DUP2 EQ PUSH2 0x90B JUMPI PUSH2 0x904 DUP7 DUP6 PUSH2 0x65E JUMP JUMPDEST DUP4 SSTORE PUSH2 0x937 JUMP JUMPDEST PUSH2 0x914 DUP4 PUSH2 0x4E2 JUMP JUMPDEST PUSH2 0x92B PUSH2 0x920 DUP8 PUSH2 0x4F4 JUMP JUMPDEST DUP3 ADD PUSH1 0x1 DUP4 ADD PUSH2 0x5CE JUMP JUMPDEST PUSH2 0x935 DUP8 DUP6 PUSH2 0x8C3 JUMP JUMPDEST POP JUMPDEST POP PUSH2 0x98A JUMP JUMPDEST PUSH2 0x946 DUP3 PUSH2 0x4E2 JUMP JUMPDEST PUSH2 0x94F DUP7 PUSH2 0x4F4 JUMP JUMPDEST DUP2 ADD PUSH1 0x1F DUP8 AND DUP1 ISZERO PUSH2 0x969 JUMPI PUSH2 0x968 DUP2 PUSH1 0x1 DUP5 SUB PUSH2 0x888 JUMP JUMPDEST JUMPDEST PUSH2 0x97D PUSH2 0x975 DUP9 PUSH2 0x4F4 JUMP JUMPDEST DUP5 ADD DUP4 PUSH2 0x5CE JUMP JUMPDEST PUSH1 0x1 DUP9 PUSH1 0x2 MUL OR DUP6 SSTORE POP POP POP JUMPDEST POP POP POP POP POP JUMP JUMPDEST PUSH9 0x10000000000000000 DUP5 GT ISZERO PUSH2 0x9AB JUMPI PUSH2 0x9AA PUSH2 0x458 JUMP JUMPDEST JUMPDEST PUSH1 0x20 DUP4 LT PUSH0 DUP2 EQ PUSH2 0x9F4 JUMPI PUSH1 0x20 DUP6 LT PUSH0 DUP2 EQ PUSH2 0x9D2 JUMPI PUSH2 0x9CB DUP7 DUP6 PUSH2 0x65E JUMP JUMPDEST DUP4 SSTORE PUSH2 0x9EE JUMP JUMPDEST DUP4 PUSH1 0xFF NOT AND SWAP4 POP DUP4 PUSH2 0x9E3 DUP5 PUSH2 0x4E2 JUMP JUMPDEST SSTORE PUSH1 0x1 DUP7 PUSH1 0x2 MUL ADD DUP4 SSTORE JUMPDEST POP PUSH2 0x9FE JUMP JUMPDEST PUSH1 0x1 DUP6 PUSH1 0x2 MUL ADD DUP3 SSTORE JUMPDEST POP POP POP POP POP JUMP JUMPDEST DUP1 SLOAD PUSH2 0xA10 DUP2 PUSH2 0x4B2 JUMP JUMPDEST DUP1 DUP5 GT ISZERO PUSH2 0xA25 JUMPI PUSH2 0xA24 DUP5 DUP3 DUP5 DUP7 PUSH2 0x991 JUMP JUMPDEST JUMPDEST DUP1 DUP5 LT ISZERO PUSH2 0xA3A JUMPI PUSH2 0xA39 DUP5 DUP3 DUP5 DUP7 PUSH2 0x8E3 JUMP JUMPDEST JUMPDEST POP POP POP POP JUMP JUMPDEST DUP2 DUP2 LT ISZERO PUSH2 0xA5D JUMPI PUSH2 0xA52 PUSH0 DUP3 PUSH2 0x5B6 JUMP JUMPDEST PUSH1 0x1 DUP2 ADD SWAP1 POP PUSH2 0xA40 JUMP JUMPDEST POP POP JUMP JUMPDEST PUSH2 0xA6B PUSH0 DUP3 PUSH2 0xA05 JUMP JUMPDEST POP JUMP JUMPDEST PUSH0 DUP3 EQ PUSH2 0xA7E JUMPI PUSH2 0xA7D PUSH2 0x306 JUMP JUMPDEST JUMPDEST PUSH2 0xA87 DUP2 PUSH2 0xA61 JUMP JUMPDEST POP POP JUMP JUMPDEST PUSH2 0xA97 PUSH0 PUSH0 DUP4 ADD PUSH2 0xA6E JUMP JUMPDEST PUSH2 0xAA4 PUSH0 PUSH1 0x1 DUP4 ADD PUSH2 0xA6E JUMP JUMPDEST POP JUMP JUMPDEST PUSH0 DUP3 EQ PUSH2 0xAB7 JUMPI PUSH2 0xAB6 PUSH2 0x306 JUMP JUMPDEST JUMPDEST PUSH2 0xAC0 DUP2 PUSH2 0xA8B JUMP JUMPDEST POP POP JUMP JUMPDEST JUMPDEST DUP2 DUP2 LT ISZERO PUSH2 0xAE2 JUMPI PUSH2 0xAD7 PUSH0 DUP3 PUSH2 0xAA7 JUMP JUMPDEST PUSH1 0x2 DUP2 ADD SWAP1 POP PUSH2 0xAC5 JUMP JUMPDEST POP POP JUMP JUMPDEST DUP2 DUP4 LT ISZERO PUSH2 0xB1F JUMPI PUSH2 0xAF7 DUP3 PUSH2 0x860 JUMP JUMPDEST PUSH2 0xB00 DUP5 PUSH2 0x860 JUMP JUMPDEST PUSH2 0xB09 DUP4 PUSH2 0x876 JUMP JUMPDEST DUP2 DUP2 ADD DUP4 DUP3 ADD PUSH2 0xB19 DUP2 DUP4 PUSH2 0xAC4 JUMP JUMPDEST POP POP POP POP POP JUMPDEST POP POP POP JUMP JUMPDEST PUSH9 0x10000000000000000 DUP3 GT ISZERO PUSH2 0xB3E JUMPI PUSH2 0xB3D PUSH2 0x458 JUMP JUMPDEST JUMPDEST PUSH2 0xB47 DUP2 PUSH2 0x7E8 JUMP JUMPDEST DUP3 DUP3 SSTORE PUSH2 0xB55 DUP4 DUP3 DUP5 PUSH2 0xAE6 JUMP JUMPDEST POP POP POP JUMP JUMPDEST PUSH0 DUP3 SWAP1 POP SWAP3 SWAP2 POP POP JUMP JUMPDEST PUSH0 DUP2 ADD PUSH0 DUP4 ADD PUSH2 0xB74 DUP2 DUP6 PUSH2 0x3EC JUMP JUMPDEST PUSH2 0xB7F DUP2 DUP4 DUP7 PUSH2 0x746 JUMP JUMPDEST POP POP POP POP PUSH1 0x1 DUP2 ADD PUSH1 0x20 DUP4 ADD PUSH2 0xB95 DUP2 DUP6 PUSH2 0x3EC JUMP JUMPDEST PUSH2 0xBA0 DUP2 DUP4 DUP7 PUSH2 0x746 JUMP JUMPDEST POP POP POP POP POP POP JUMP JUMPDEST PUSH2 0xBB2 DUP3 DUP3 PUSH2 0xB64 JUMP JUMPDEST POP POP JUMP JUMPDEST PUSH2 0xBC0 DUP4 DUP4 PUSH2 0xB5A JUMP JUMPDEST PUSH2 0xBCA DUP2 DUP4 PUSH2 0xB24 JUMP JUMPDEST PUSH2 0xBD3 DUP4 PUSH2 0x7B8 JUMP JUMPDEST PUSH2 0xBDC DUP4 PUSH2 0x876 JUMP JUMPDEST PUSH0 JUMPDEST DUP4 DUP2 LT ISZERO PUSH2 0xC12 JUMPI PUSH2 0xBF0 DUP4 DUP8 PUSH2 0x7C1 JUMP JUMPDEST PUSH2 0xBFA DUP2 DUP5 PUSH2 0xBA8 JUMP JUMPDEST PUSH1 0x20 DUP5 ADD SWAP4 POP PUSH1 0x2 DUP4 ADD SWAP3 POP POP PUSH1 0x1 DUP2 ADD SWAP1 POP PUSH2 0xBDE JUMP JUMPDEST POP POP POP POP POP POP POP JUMP JUMPDEST PUSH2 0xC26 DUP4 DUP4 DUP4 PUSH2 0xBB6 JUMP JUMPDEST POP POP POP JUMP JUMPDEST PUSH0 DUP2 ADD PUSH0 DUP4 ADD DUP1 PUSH2 0xC3B DUP2 PUSH2 0x348 JUMP JUMPDEST SWAP1 POP PUSH2 0xC47 DUP2 DUP5 PUSH2 0x3BD JUMP JUMPDEST POP POP POP PUSH1 0x1 DUP2 ADD PUSH1 0x20 DUP4 ADD PUSH2 0xC5C DUP2 DUP6 PUSH2 0x3EC JUMP JUMPDEST PUSH2 0xC67 DUP2 DUP4 DUP7 PUSH2 0x746 JUMP JUMPDEST POP POP POP POP PUSH1 0x2 DUP2 ADD PUSH1 0x40 DUP4 ADD PUSH2 0xC7D DUP2 DUP6 PUSH2 0x756 JUMP JUMPDEST PUSH2 0xC88 DUP2 DUP4 DUP7 PUSH2 0xC1B JUMP JUMPDEST POP POP POP POP POP POP JUMP JUMPDEST PUSH2 0xC9A DUP3 DUP3 PUSH2 0xC2B JUMP JUMPDEST POP POP JUMP INVALID LOG2 PUSH5 0x6970667358 0x22 SLT KECCAK256 RETURNDATASIZE XOR 0xBF 0xD5 SIGNEXTEND PUSH4 0xB86E1038 0xB7 EOFCREATE 0x17 0xC8 0xD5 SUB RJUMP 0xDE7B 0x4F SWAP8 0xC8 0xCF TLOAD 0xC2 SMOD XOR DUP12 PUSH26 0x75BA6264736F6C634300081E0033000000000000000000000000 "
		},
		"gasEstimates": {
			"creation": {
				"codeDepositCost": "656800",
				"executionCost": "687",
				"totalCost": "657487"
			},
			"external": {
				"addPerson((uint8,string,(string,string)[]))": "infinite",
				"persons(uint256)": "infinite"
			}
		},
		"methodIdentifiers": {
			"addPerson((uint8,string,(string,string)[]))": "91e86761",
			"persons(uint256)": "a2f9eac6"
		}
	},
	"abi": [
		{
			"inputs": [
				{
					"components": [
						{
							"internalType": "uint8",
							"name": "age",
							"type": "uint8"
						},
						{
							"internalType": "string",
							"name": "name",
							"type": "string"
						},
						{
							"components": [
								{
									"internalType": "string",
									"name": "label",
									"type": "string"
								},
								{
									"internalType": "string",
									"name": "value",
									"type": "string"
								}
							],
							"internalType": "struct StructExample.Hobbie[]",
							"name": "hobbies",
							"type": "tuple[]"
						}
					],
					"internalType": "struct StructExample.Person",
					"name": "p",
					"type": "tuple"
				}
			],
			"name": "addPerson",
			"outputs": [],
			"stateMutability": "nonpayable",
			"type": "function"
		},
		{
			"inputs": [
				{
					"internalType": "uint256",
					"name": "",
					"type": "uint256"
				}
			],
			"name": "persons",
			"outputs": [
				{
					"internalType": "uint8",
					"name": "age",
					"type": "uint8"
				},
				{
					"internalType": "string",
					"name": "name",
					"type": "string"
				}
			],
			"stateMutability": "view",
			"type": "function"
		}
	]
}